:100000000C94E0000C9408010C9408010C94080175
:100010000C9408010C9408010C9408010C9408013C
:100020000C9408010C9408010C9408010C9408012C
:100030000C9408010C9408010C9408010C9408011C
:100040000C94A2220C9408010C9412230C94EC2220
:100050000C9408010C9408010C9408010C940801FC
:100060000C9408010C94080100407A10F35A00A087
:10007000724E18090010A5D4E80000E87648170071
:1000800000E40B54020000CA9A3B000000E1F505B1
:10009000000080969800000040420F000000A086FB
:1000A00001000000102700000000E803000000002D
:1000B0006400000000000A000000000001000000D1
:1000C00000002C76D888DC674F0823DFC1DFAE59EB
:1000D000E1B1B796E5E3E453C63AE651997696E87E
:1000E000E6C28426EB898C9B62ED407C6FFCEFBC02
:1000F0009C9F40F2BAA56FA5F490055A2AF75C932D
:100100006B6CF9676DC11BFCE0E40D47FEF520E662
:10011000B500D0ED902E0300943577050080841E45
:10012000080000204E0A000000C80C333333330FA0
:10013000986E12831141EF8D2114893BE65516CF3D
:10014000FEE6DB18D1844B381BF77C1D901DA4BB49
:10015000E424203284725E228100C9F124ECA1E5FE
:100160003D27000000080002010000030407000012
:10017000000000000000000000002300260029000D
:1001800000000000250028002B00000000002400D3
:1001900027002A00040404040404040402020202E6
:1001A000020203030303030301020408102040803A
:1001B0000102040810200102040810204423812AAF
:1001C00011241FBECFEFD8E0DEBFCDBF13E0A0E00B
:1001D000B1E0EEECF3E602C005900D92A03BB10752
:1001E000D9F725E0A0EBB3E001C01D92AA35B20714
:1001F000E1F710E0CFEDD0E004C02197FE010E94AE
:10020000C12FCE3DD107C9F70E9474240C94DA3176
:100210000C9400008CBD9DBD08958F929F92AF926B
:10022000BF92CF92DF92EF92FF920F931F93CF93E3
:10023000DF9300D0CDB7DEB74C015B01D12CC12CD0
:10024000CA14DB0418F090E080E02DC0E0911C059A
:10025000F0911D05809118059091190509951616C4
:10026000170618061906ECF41A821982E091140593
:10027000F09115057B018C019E012F5F3F4FA50179
:100280004C195D09B4016C0D7D1D80911005909194
:1002900011050995009739F489819A81C80ED91EF4
:1002A000CFCF8CEF9FEF0F900F90DF91CF911F91E9
:1002B0000F91FF90EF90DF90CF90BF90AF909F9005
:1002C0008F900895CF93DF93BC01809108059091A2
:1002D00009050E940D01EC01892B89F44091FF046E
:1002E000509100056091010570910205E0911A0599
:1002F000F0911B0580911605909117050995CE0187
:10030000DF91CF9108958F929F92AF92BF92CF923B
:10031000DF92EF92FF920F931F93CF93DF9300D062
:10032000CDB7DEB79C01260F371F409106055091CF
:1003300007054217530708F44CC05B014C01D12C50
:10034000C12CCA14DB0418F090E080E033C0E091C7
:100350001C05F0911D0580911805909119050995CE
:100360007B018C011E141F04100611060CF51A8265
:10037000198260910A0570910B05C4018C0D9D1DB9
:10038000680F791FE0911205F09113059E012F5F10
:100390003F4FA5014C195D09809110059091110501
:1003A0000995009739F489819A81C80ED91EC9CF61
:1003B0008CEF9FEF0F900F90DF91CF911F910F91D6
:1003C000FF90EF90DF90CF90BF90AF909F908F9075
:1003D00008958FEF9FEFEECF109221058091D30407
:1003E0009091D404DC01ED91FC910488F589E02D15
:1003F00009948091D3049091D404009711F480E083
:100400000895DC01ED91FC910688F789E02D0995AE
:100410008130A9F7809121050895FC01818D928D8D
:1004200008950895CF92DF92EF92FF92CF93DF93DA
:10043000B0914405A0E08111AB2F8091450590E07B
:10044000880F991FAC014A585E4FC0904A05D09062
:100450004B05E0904C05F0904D0530E020E0FA01AE
:10046000C591D491E881B90190E080E0EB23EA13D3
:100470000AC02F5F3F4F6C157D058E059F0578F3F1
:100480006FEF7FEFCB01DF91CF91FF90EF90DF9087
:10049000CF900895833081F028F4813099F0823034
:1004A000A9F008958730A9F08830C9F08430B1F4FC
:1004B000809180008F7D03C0809180008F77809332
:1004C0008000089584B58F7784BD089584B58F7DAD
:1004D000FBCF8091B0008F778093B000089580911A
:1004E000B0008F7DF9CF1F93CF93DF93282F30E09B
:1004F000F901EE59FE4F8491F901E855FE4FD49170
:10050000F901EC56FE4FC491CC23A9F0162F8111AE
:100510000E944A02EC2FF0E0EE0FFF1FE058FE4F62
:10052000A591B4918FB7F894EC91111108C0D095B2
:10053000DE23DC938FBFDF91CF911F910895DE2BD7
:10054000F8CFCF93DF9390E0FC01E855FE4F249164
:100550008C569E4FFC0184918823D1F090E0880F47
:10056000991FFC01E657FE4FA591B491FC01E0589C
:10057000FE4FC591D491623071F49FB7F8943C91CD
:10058000822F809583238C93E8812E2B28839FBF15
:10059000DF91CF9108958FB7F894EC912E2B2C9387
:1005A0008FBFF6CF3FB7F8948091BD039091BE0303
:1005B000A091BF03B091C00326B5A89B05C02F3FF3
:1005C00019F00196A11DB11D3FBFBA2FA92F982F79
:1005D0008827BC01CD01620F711D811D911D42E074
:1005E000660F771F881F991F4A95D1F708958F923C
:1005F0009F92AF92BF92CF92DF92EF92FF924B0108
:100600005C010E94D2026B017C010E94D2026C1933
:100610007D098E099F09683E734081059105A8F305
:1006200021E0821A9108A108B10888EEC80E83E083
:10063000D81EE11CF11C81149104A104B10429F716
:10064000FF90EF90DF90CF90BF90AF909F908F90F2
:1006500008952FB7F8946091B9037091BA0380910F
:10066000BB039091BC032FBF0895CF92DF92EF920E
:10067000FF920F931F93CF93DF93CDB7DEB7C05494
:10068000D1400FB6F894DEBF0FBECDBF0E94290344
:100690000091460510914705209148053091490584
:1006A0006B017C01C01AD10AE20AF30A97018601A4
:1006B000003D17402105310590F480914E05C05C46
:1006C000DE4F0FB6F894DEBF0FBECDBFDF91CF91E6
:1006D0001F910F91FF90EF90DF90CF90089560935E
:1006E00046057093470580934805909349051092FD
:1006F00041051092400510923F0510923E05109260
:100700003D0562E0809142050E94A10261E070E037
:1007100080E090E00E94F70261E0809142050E9433
:10072000A10260E0809142050E947302809143051E
:100730008551823020F58BE291E10197F1F762E07B
:10074000809142050E94A10280914F0590E0823085
:10075000910538F0880F991F880F991F0597019709
:10076000F1F7F89480E00E9412026F3F7F4F8F4FA5
:100770009F4F61F410924E05789480E0A0CF64E121
:1007800070E080E090E00E94F702D9CF81E00E9403
:1007900012026F3F7F4F8F4F9F4F61F38E010F5FAC
:1007A0001F4F6E012FEBC21A2EEFD20A780180E0A4
:1007B0000E941202F701608371838283938381E038
:1007C0000E941202F7016483758386839783F8E0A1
:1007D000EF0EF11CEC14FD0451F7789430E020E0AA
:1007E000F801C080D180E280F38044815581668128
:1007F0007781FFEFCF16DF06EF06FF0631F04F3FA0
:100800008FEF58076807780719F410924E05B5CF97
:10081000F90183E0F595E7958A95E1F7E35CFA4FF6
:100820008081880FC416D506E606F70610F180838E
:100830002F5F3F4F085F1F4F2832310589F64091E7
:10084000410520913D0580913E05280F3327331F38
:1008500080913F05280F311D80914005820F932F15
:10086000911D99274817190681F681E080934E055E
:1008700026CF8160DCCFCF93DF93EC014C835D8387
:100880006E837F83E885F985309741F00995688309
:1008900079838A839B83DF91CF9108950E942903F6
:1008A000F6CFCF92DF92EF92FF920F931F93CF93E9
:1008B000DF93EC01E885F985309739F109950881D6
:1008C00019812A813B81601771078207930700F520
:1008D0000095109520953095600F711F821F931F12
:1008E0000C811D812E813F8168017901C61AD70ACA
:1008F000E80AF90AC701B601DF91CF911F910F9164
:10090000FF90EF90DF90CF9008950E942903D7CFFA
:10091000601B710B820B930BE3CF2F923F924F9290
:100920005F926F927F928F929F92AF92BF92CF927F
:10093000DF92EF92FF920F931F93CF93DF9300D03C
:1009400000D0CDB7DEB79A8389836B015C834B837C
:100950001901270138010E9429034B015C01D101D3
:100960001D921C92EB81FC81EF2B91F10E942903D7
:10097000681979098A099B09641575058605970523
:1009800038F5A981BA818D919C91DC01ED91FC91A2
:100990000288F389E02D4B815C81B6010995181618
:1009A0001906A4F161E070E080E090E00E94F70297
:1009B000A981BA818D919C91DC01ED91FC91068811
:1009C000F789E02D09958111CDCF8BEF9FEF07C0FF
:1009D000F10180819181892B51F190E080E00F90AD
:1009E0000F900F900F90DF91CF911F910F91FF907B
:1009F000EF90DF90CF90BF90AF909F908F907F90BF
:100A00006F905F904F903F902F900895C80ED91E21
:100A1000D1012D913C911197280F391F2D933C93B3
:100A2000EB81FC81E81BF90BFC83EB839BCF8CEF04
:100A30009FEFD5CFCF93DF93E901DC018D919C919E
:100A4000DC01ED91FC910280F381E02D0995998301
:100A50008883892B29F090E080E0DF91CF91089581
:100A60008AEF9FEFFACF0895AF92BF92CF92DF92B5
:100A7000EF92FF920F931F93CF93DF936C017B0153
:100A80008B01040F151FEB015E01AE18BF08C017E4
:100A9000D10759F06991D601ED91FC910190F08157
:100AA000E02DC6010995892B79F7C501DF91CF911A
:100AB0001F910F91FF90EF90DF90CF90BF90AF907C
:100AC0000895FC01538D448D252F30E0842F90E054
:100AD000821B930B541710F0CF9608950197089539
:100AE000FC01918D828D981761F0A28DAE0FBF2F02
:100AF000B11D5D968C91928D9F5F9F73928F90E058
:100B000008958FEF9FEF0895FC01918D828D9817C6
:100B100031F0828DE80FF11D858D90E008958FEF03
:100B20009FEF0895FC01918D228D892F90E0805CCC
:100B30009F4F821B91098F739927089584EE93E04C
:100B40000E94920521E0892B09F420E0822F08956C
:100B500080E090E0892B29F00E949E0581110C9481
:100B600000000895FC01A48DA80FB92FB11DA35A50
:100B7000BF4F2C91848D90E001968F739927848FBD
:100B8000A689B7892C93A089B1898C9183708064E0
:100B90008C93938D848D981306C00288F389E02D81
:100BA00080818F7D80830895EF92FF920F931F9332
:100BB000CF93DF93EC0181E0888F9B8D8C8D981310
:100BC0001AC0E889F989808185FF15C09FB7F8941C
:100BD000EE89FF896083E889F98980818370806468
:100BE00080839FBF81E090E0DF91CF911F910F91B3
:100BF000FF90EF900895F62E0B8D10E00F5F1F4FC2
:100C00000F731127E02E8C8D8E110CC00FB607FCD0
:100C1000FACFE889F989808185FFF5CFCE010E945E
:100C2000B205F1CFEB8DEC0FFD2FF11DE35AFF4F15
:100C3000F0829FB7F8940B8FEA89FB8980818062EC
:100C4000CFCFCF93DF93EC01888D8823B9F0AA89A9
:100C5000BB89E889F9898C9185FD03C0808186FD77
:100C60000DC00FB607FCF7CF8C9185FFF2CF8081C6
:100C700085FFEDCFCE010E94B205E9CFDF91CF9184
:100C800008950F931F93CF93DF93EC01B0E0A0E0A2
:100C9000E881F9818D010F5F1F4FCB018E1B9F0BE8
:100CA0008017910758F1822F8F7797E056954795D7
:100CB000379527959A95D1F72115310541055105AD
:100CC00009F08068EA0FFB1F80832115310541057B
:100CD000510569F488819981800F911F99838883D8
:100CE00090E080E0DF91CF911F910F910895D8019E
:100CF0000430110569F68EEF9FEFF4CF8FEF9FEF71
:100D0000F1CF4F925F926F927F929F92AF92BF927C
:100D1000CF92DF92EF92FF920F931F93CF93DF93C7
:100D20006C018A01DA011D921D921D921C9213978B
:100D3000DC01ED91FC917B01EE1AFF0A5F01D0E02E
:100D4000C0E0412C512C320143942196EC16FD0653
:100D5000E0F1C530D105E1F1D5019D905D01A92DEE
:100D6000AF77B0E0A30192010E94362ED8012D91F9
:100D70003D914D915C911397260F371F481F591FC6
:100D80002D933D934D935C93139787E0440C551C32
:100D9000661C771C8A95D1F797FCD7CFEC0FFD1F07
:100DA000D601ED93FC9390E080E0DF91CF911F910D
:100DB0000F91FF90EF90DF90CF90BF90AF909F90FA
:100DC0007F906F905F904F9008958FEF9FEFEDCFE2
:100DD0008EEF9FEFEACFFA0160387105810591052A
:100DE00038F481E090E09183808390E080E0089582
:100DF000611520E472078105910518F482E090E006
:100E0000F2CF6F3F2FEF72072FE18207910518F4A1
:100E100083E090E0E8CF6F3F7F4F8F4F9F4018F403
:100E200084E090E0E0CF118210828EEF9FEF089572
:100E3000FC01A081B181A617B70729F4DA011C9241
:100E40008FEF9FEF08958C91DA018C9380819181CF
:100E500001969183808390E080E00895FC01A08159
:100E6000B1816A1B7B0B6230710568F05C93A081D5
:100E7000B18111964C9380819181029691838083F8
:100E800090E080E008958FEF9FEF0895AF92BF92BA
:100E9000CF92DF92EF92FF920F931F93CF93DF9346
:100EA00000D0CDB7DEB77C01E60EF71EE1E0F0E042
:100EB0002630310511F0F0E0E0E0EE0FFF1F74E0A6
:100EC000220F331F7A95E1F7E22BE816F90669F154
:100ED0006A015C01DC01ED93BA83A98322E030E072
:100EE00040E050E0B701CE0101960E944106009714
:100EF00079F4A801B701CE0101960E942E07009750
:100F000039F429813A812A193B09F601318320837A
:100F10000F900F90DF91CF911F910F91FF90EF9065
:100F2000DF90CF90BF90AF9008958FEF9FEFF0CFFD
:100F3000CF93DF93DC01ED91FC9111976E1B7F0B3A
:100F40006230710540F4EA01198218828FEF9FEF39
:100F5000DF91CF910895208130E0322F22279181B7
:100F6000290F311DEA01398328833296ED93FC93D2
:100F700090E080E0EDCFCF92DF92EF92FF920F935F
:100F80001F93CF93DF9300D000D000D01F92CDB736
:100F9000DEB76A0179019E838D838C01060F171FCE
:100FA0001F82AE01495F5F4FB801CE0105960E94D6
:100FB0001807009729F52F81207F30E084E03595D0
:100FC00027958A95E1F787EF9FEF2C153D05C1F432
:100FD000AE014F5F5F4FB801CE0105960E948106BA
:100FE000009771F489819A81AB81BC810297A10538
:100FF000B105A9F4A701B801CE0105960E94980792
:1010000027960FB6F894DEBF0FBECDBFDF91CF910C
:101010001F910F91FF90EF90DF90CF90089588EF90
:101020009FEFEECF2F923F924F925F926F927F92FF
:101030008F929F92AF92BF92CF92DF92EF92FF92E8
:101040000F931F93CF93DF93CDB7DEB766970FB69D
:10105000F894DEBF0FBECDBF3C017E8B6D8B1A01B5
:10106000F12CE12CF3011182108261E070E090E03C
:1010700080E00E9483018C3FFFEF9F0709F420C1AD
:10108000009709F05AC060910A0570910B05F301B1
:10109000118210827A8369836F5F7F4FAE01485F50
:1010A0005F4FCE0101960E941807009709F045C0D6
:1010B0008885807F90E034E0959587953A95E1F7B3
:1010C000F301918380838930910579F04CF4029784
:1010D000069758F0F3011182108287EF9FEF2DC021
:1010E0008B30910511F00D97A9F719821A821B8296
:1010F0001C8210E000E02801FFEF4F1A5F0A61E058
:1011000070E0C2010E9483010097B9F460910A0562
:1011100070910B056F5F7F4F79876887640D751D30
:10112000AE014F5F5F4FCE0108960E9481068E3F51
:101130002FEF9207D9F489EF9FEF66960FB6F894D8
:10114000DEBF0FBECDBFDF91CF911F910F91FF90FA
:10115000EF90DF90CF90BF90AF909F908F907F9057
:101160006F905F904F903F902F9008950097C9F433
:1011700069817A818B819C814B0120911E0521110F
:101180001AC0611571058105910509F091C089802A
:101190009A80FFEF8F1A9F0A8E0C9F1C840C951C5F
:1011A00035C019821A821B821C8282018F3F9807E8
:1011B00009F4A1CFC2CF98012E5F3F4F5B016C01B4
:1011C000A20EB31EC11CD11C20910605309107054B
:1011D00050E040E02A153B054C055D0590F6811472
:1011E000910489F5F30111821082E0911F05F091BD
:1011F0002005309759F080819181A281B3810196B9
:10120000A11DB11D80839183A283B383F3018081EB
:101210009181009709F48BC18530910509F43AC199
:1012200008F050C0039709F457C02114310409F4A1
:1012300075C1F301808191812816390609F07AC1C0
:1012400090E080E07ACFE0911C05F0911D0580913F
:1012500018059091190509957B018C011E141F0436
:101260001006110614F540910605509107058416E5
:10127000950608F4A4011986188660910A057091F4
:101280000B05E0911205F09113059E01285F3F4F79
:1012900080911005909111050995009709F04DCFA7
:1012A00088859985881A990A9ACF8CEF9FEF45CF48
:1012B000C80102960E948301009709F468CF3DCFD0
:1012C0004701A4CF8630910509F40DC10D9709F0AF
:1012D000ACCF10920305A9CF809106059091070528
:1012E000E0900A05F0900B05FF86EE86E80EF91EE9
:1012F000AE01405F5F4FB701CE010E960E94180706
:10130000009709F01ACF8889982F907F903309F0C1
:10131000E4CE982F91709B83867090E09595879589
:10132000813009F49AC0512C412C823019F492E09A
:10133000492E512CAE01485F5F4FB701CE010E968A
:101340000E948106009709F0F8CE488559856A8584
:101350007B85423051056105710508F498C00E8502
:101360001F85E01AF10AC701FF0CAA0BBB0B8417FB
:101370009507A607B70708F4D7C0040F151FAE01DD
:10138000445F5F4FB801CE010E960E949807009708
:1013900009F0D3CE2C853D852115310509F061C0BA
:1013A0001C8A1B8A3A8B298B4114510409F469C0A9
:1013B000AE01445F5F4FB801CE010E960E949807C0
:1013C000009709F0BACE8E859F85081B190B1F83E5
:1013D0000E83012B09F058C01D821C82E0910C0580
:1013E000F0910D053097A1F060910E0570910F05F9
:1013F000A42C5A824982BA80CB80DC80ED80FE80AA
:101400000F8129893A894B895C898DEF94E0099590
:101410004114510409F409CF24E030E04A944528EE
:1014200011F025E030E00C851D8560910405709178
:101430000505AE01485F5F4F809108059091090551
:101440000E944607009709F078CE888599850E940A
:101450006201009709F4E9CE70CE44244394512CE4
:1014600069CF8E859F85A801481B590B42175307EA
:1014700008F45AC09C8B8B8B820F931F9F878E879B
:1014800091CF1D861C869FCF9D838C83A7CF88EF2D
:101490009FEF53CE60910605709107059E01285F6E
:1014A0003F4F45E050E080910A0590910B050E9466
:1014B000BB07009709F041CE0885198560910405A6
:1014C0007091050526E030E0AE014F5F5F4F8091DF
:1014D0000805909109050E944607009709F02DCE56
:1014E00089819A81B4CF60910605709107059E01AC
:1014F000285F3F4F46E050E080910A0590910B0530
:101500000E94BB07009709F018CE088519856091E5
:1015100004057091050527E030E0D6CF8D899E89BE
:10152000892B09F086CE8CCE8FEF9FEF06CE21144B
:101530003104A1F3E0911C05F0911D05809118057F
:1015400090911905099516161706180619060CF03C
:1015500077CEED89FE89309721F08E169F0608F030
:101560006FCE74017FCDFC0120812EBD9B012150E7
:10157000310941F051810DB407FEFDCF4EB55EBD7E
:101580004193F5CF61507109860F971F0DB407FE87
:10159000FDCF2EB5FC0120830895E091DE03F0918C
:1015A000DF0380819091DD03892B80830895E09192
:1015B000DE03F091DF0390818091DD038095892324
:1015C000808308958EBD00000DB407FEFDCF8EB55B
:1015D0000895AF92BF92CF92DF92EF92FF920F9356
:1015E0001F93CF93DF93CDB7DEB728970FB6F8944C
:1015F000DEBF0FBECDBF8C017B016A018091E1038C
:101600008333E1F45801A40EB51EA016B10609F407
:101610006FC00E94D70A80EF0E94E20A812F0E94C9
:10162000E20A802F0E94E20A0F5F1F4FF7018191AB
:101630007F010E94E20A0E94CD0AE7CF5B01A40E5F
:10164000B51E8433C1F40E94D70A19830A838D2DF5
:1016500080688B83CC8264E070E0CE0101960E94AA
:10166000B30AAE14BF0409F441C0F70181917F01B0
:101670000E94E20AF6CF0E94D70A0F3F110509F037
:1016800028F419820A8384E08B830CC017FD17C0ED
:1016900019820A8333E0169507953A95E1F7007EA3
:1016A0000C600B8386E0C816D104A0F5F701DE01BB
:1016B0001496EA15FB0599F081918D93FACFC80134
:1016C00026E0969587952A95E1F7807E19830A830F
:1016D0000115104C10F48461D7CF8C61D5CFB601C1
:1016E0006D5F7F4FCE0101960E94B30A0E94CD0A22
:1016F000C60128960FB6F894DEBF0FBECDBFDF91AE
:10170000CF911F910F91FF90EF90DF90CF90BF90FE
:10171000AF90089563E070E0CE0101960E94B30A95
:10172000F70181917F010E94E20AAE14BF04C1F764
:10173000DDCFCF93DF931F92CDB7DEB7898341E032
:1017400050E0BE016F5F7F4F90E080E00E94E90AA9
:101750000F90DF91CF91089590E02091E103233322
:1017600039F40C96982F990F990F990F80E00895EE
:101770004896F8CFDA01E091E203F0E0FE2FEE2781
:10178000E60FF71F90E0982F8827A901BD018E0F63
:101790009F1F0C94E90ACF93DF9300D0CDB7DEB73B
:1017A00079836A8322E030E0AE014F5F5F4F60E1F2
:1017B00070E00E94BA0B0F900F90DF91CF910895C7
:1017C000CF93DF9300D0CDB7DEB779836A8322E071
:1017D00030E0AE014F5F5F4F64E070E00E94BA0BF3
:1017E0000F900F90DF91CF910895CF93DF931F92C9
:1017F000CDB7DEB72091E20330E0322F2227260F4B
:10180000371F90E0982F8827498341E050E0BE01C0
:101810006F5F7F4F820F931F0E94E90A0F90DF9145
:10182000CF910895CF93DF931F92CDB7DEB7698331
:10183000DC01ED91FC910280F381E02D41E050E06C
:10184000BE016F5F7F4F09950F90DF91CF91089593
:10185000FC019485FB018485981303C081E09430DA
:1018600008F080E00895CF93DF931F92CDB7DEB7E5
:101870006983DC01ED91FC910280F381E02D41E070
:1018800050E0BE016F5F7F4F09950F90DF91CF91C0
:1018900008950895FF920F931F93CF93DF93EB0169
:1018A000FC01178A168A2A81211109C02B81211176
:1018B00006C02C81211103C02D81222301F1411585
:1018C0005105E9F08A01FC01F08C80E591E00E946D
:1018D0000A01AE014E5F5F4F24E030E06CE070E043
:1018E0008F2D0E94BA0BB8018F2D0E94CB0B81E087
:1018F00090E0DF91CF911F910F91FF90089580E0CC
:10190000F7CFFC01848595850895FC01848995892C
:1019100008952AE831E0FC0131832083FB014089EE
:10192000518962897389FC0142835383648375837F
:101930000895DC01ED91FC91048CF58DE02D099466
:1019400090E080E00895FC01768765870895DC01CA
:10195000ED91FC9102A0F3A1E02D099591E089277A
:101960000895862F089581E08627089521E0FC01DF
:101970008485843008F020E0822F0895089560E087
:1019800083E00E94730260E084E00E94730261E0E1
:1019900085E00E94A10260E085E00C947302FB01E7
:1019A00001900020E9F73197AF01461B570BDC018E
:1019B000ED91FC910280F381E02D0994CF93DF93A8
:1019C000FC01448155816081718184EE93E00E9425
:1019D0003405EC016CE871E084EE93E00E94CF0CDA
:1019E0008C0F9D1FDF91CF9108958F929F92AF92A0
:1019F000BF92EF92FF920F931F93CF93DF93CDB7D8
:101A0000DEB7A1970FB6F894DEBF0FBECDBF7C0145
:101A1000FA01CB0119A2223008F42AE08E010F5DF1
:101A20001F4F822E912CB12CA12CBF01A501940136
:101A30000E94782EF901CA016A300CF5605DD80168
:101A40006E938D01232B242B252B79F790E080E0DA
:101A5000109721F0BD01C7010E94CF0CA1960FB6CF
:101A6000F894DEBF0FBECDBFDF91CF911F910F91D4
:101A7000FF90EF90BF90AF909F908F900895695C1A
:101A8000DECF8F929F92AF92BF92CF92DF92EF9272
:101A9000FF920F931F93CF93DF937C01EB016C01B7
:101AA00082E0C80ED11C4701E5E08E0E911C10E0CB
:101AB00000E0F60141916F0150E070E060E02AE043
:101AC000CE010E94F50C5C01E881F9810190F08162
:101AD000E02D6EE2CE0109958A0D9B1D080F191F9E
:101AE000C814D90431F7F701458150E070E060E097
:101AF0002AE0CE010E94F50C800F911FDF91CF915B
:101B00001F910F91FF90EF90DF90CF90BF90AF901B
:101B10009F908F9008954F925F926F927F928F92D5
:101B20009F92AF92BF92CF92DF92EF92FF920F936C
:101B30001F93CF936B017C01742EAC019B010E941B
:101B4000BC2F6FE871E0811126C046015701E8946F
:101B5000B7F82FEF3FEF4FE75FE7C501B4010E94F1
:101B6000BC2F81110CC02FEF3FEF4FE75FE7C5019E
:101B7000B4010E94122D63E971E0181664F02FEF92
:101B80003FEF4FE75FE4C701B6010E94B72F181679
:101B9000ACF467E971E084EE93E0CF911F910F916F
:101BA000FF90EF90DF90CF90BF90AF909F908F907D
:101BB0007F906F905F904F900C94CF0C2FEF3FEF82
:101BC0004FE75FECC701B6010E94122D87FDE1CF00
:101BD00020E030E0A901C701B6010E94122D10E0FB
:101BE00000E087FF0AC06DE284EE93E00E94D40516
:101BF0008C01F7FAF094F7F8F094C0E060E070E040
:101C000080E09FE37C1641F020E030E040E251E4C8
:101C10000E94162FCF5FF6CFA70196010E94AA2E31
:101C20002B013C010E94882F4B015C012AE0BC0182
:101C3000A40184EE93E00E94F50C7C01E00EF11EFD
:101C4000CC23D1F1C501B4010E94172D9B01AC0139
:101C5000C301B2010E94A92E4B015C016EE284EE29
:101C600093E00E94D405E80EF91EC15028F120E04F
:101C700030E040E251E4C501B4010E94782D2B010F
:101C80003C010E94882F4B01B12CA12C2AE0B50108
:101C9000A40184EE93E00E94F50CE80EF91EC50144
:101CA000B4010E94172D9B01AC01C301B2010E9437
:101CB000A92E4B015C01D9CFC701CF911F910F9184
:101CC000FF90EF90DF90CF90BF90AF909F908F905C
:101CD0007F906F905F904F9008950F931F93CF93D5
:101CE000DF93EC010E94CF0C8C016CE871E0CE0117
:101CF0000E94CF0C800F911FDF91CF911F910F9108
:101D00000895DC0160E070E0CB01109709F40895BC
:101D1000FD0101900020E9F73197EA1BFB0BB9F3B5
:101D2000BF01CD010895CF93DF93EC0188819981A4
:101D3000009711F00E946330198218821D821C8264
:101D40001B821A82DF91CF910895FC0180819181DD
:101D5000009711F00C94633008950C9463308F92C7
:101D60009F92AF92BF92CF92DF92EF92FF920F932A
:101D70001F93CF93DF93EC018B0149015A01A90115
:101D80000E942E077C01892BA1F48114910489F013
:101D900088819981081B190B08151905C0F0A40149
:101DA000B5010E94C33188819981880E991E99825C
:101DB0008882C701DF91CF911F910F91FF90EF9023
:101DC000DF90CF90BF90AF909F908F900895EE24BA
:101DD000EA94FE2CEECF2F923F924F925F926F9239
:101DE0007F928F929F92AF92BF92CF92DF92EF92AB
:101DF000FF920F931F93CF93DF93CDB7DEB7A297D8
:101E00000FB6F894DEBF0FBECDBF6BE971E084EE74
:101E100093E00E94CF0C0E94F90181110E94EC0115
:101E20008091D3049091D4049093E8048093E704C4
:101E30006091D5047091D6044091DD045091DE0488
:101E4000DC01ED91FC9161157105D1F00088F189FB
:101E5000E02D09951816190654F18DEF9FEF909318
:101E600027058093260566EB71E084EE93E00E94DF
:101E7000CF0C68EE73E080E090E00E94F702CBCFD9
:101E80000684F785E02D2AE831E03A832983009122
:101E9000D9041091DA042091DB043091DC040B8327
:101EA0001C832D833E83BE016F5F7F4FD2CF809016
:101EB000CB049090CC043091CD043F8F88EB91E01F
:101EC0000E94810E69837A838B839C83462E572ED2
:101ED00080EC91E00E94810E688779878A879B87D2
:101EE000A62EB72E80EC91E00E94810E6C877D8734
:101EF0008E879F87C62ED72EE090DF04F090E004F7
:101F00004091CE045091CF046091D0047091D104DF
:101F1000E0911A05F0911B05809118059091190523
:101F200009959401A8EEB3E00E949A2EAB01BC0182
:101F30004093FF04509300056093010570930205E0
:101F4000E0911A05F0911B058091160590911705F7
:101F50000995109203050091040510910505209044
:101F6000080530900905388E2F8A020D131D82E076
:101F7000480E511C712C612C9AE0490E511C611CB9
:101F8000711CE114F10471F0D7018D919C911197AE
:101F900017962D913C91820F931F0496480E591E5F
:101FA000611C711CA114B10419F4C114D10479F09D
:101FB000C5010296480E591E611C711CC114D10442
:101FC00031F0C6010296480E591E611C711CAE010B
:101FD0004D5E5F4FC301B2010E94EB06029609F409
:101FE0004AC1EF89F88DE017F10709F405C380E1D4
:101FF00080838F89988D0196988F8F8BA301920192
:10200000B801CE0147960E944106009709F02FC102
:1020100087EC91E00E94810E9B01AC01B801CE01DA
:1020200047960E94AF0E009709F021C1EF89F88D05
:10203000E017F10709F4E0C284E08083EF89F88DAE
:102040009F012F5F3F4F388F2F8B8F8D482F50E090
:10205000440F551FE114F10489F0D70114968C91B7
:102060001497880F880F880F4460842B8F7D1696F5
:102070004C91B0E24B9FA0011124482BA114B10454
:1020800019F4C114D10429F0C114D10409F0D0C04D
:1020900040682017310709F4AFC241838F89988DBA
:1020A0000196988F8F8BA401B801CE0147960E94AC
:1020B0002E07009709F0DBC029813A814B815C81B2
:1020C000B801CE0147960E94AF0E009709F0CFC02D
:1020D000E114F10499F1F7012081318142815381AA
:1020E000B801CE0147960E94AF0E009709F0BFC01D
:1020F000D70117964D915C91B801CE0147960E9489
:102100002E07009709F0B3C0F701878090848114EF
:102110009104A1F08F89988D9801281B390B2815FF
:10212000390508F469C261857285A4010E94C33132
:102130008F89988D880E991E988E8F8AA114B1046C
:1021400009F078C0C114D10409F074C08F89988D4A
:10215000821993090E946201009709F088C01A8EC3
:10216000198E42E050E070E060E0CE0149960E9496
:102170001208009709F07BC0898D9A8D029709F0AB
:10218000A9C0809106059091070500910A0510915C
:102190000B05188F0F8B080F191FAE01425E5F4FA2
:1021A000B801CE0147960E941807009709F05FC05A
:1021B0008E8D807F803209F08DC0AE014D5E5F4F05
:1021C000B801CE0147960E948106009709F04FC0E2
:1021D0008B899C89AD89BE890297A105B10509F05B
:1021E00073C0AE01435E5F4FB801CE0147960E94B7
:1021F00018070097E1F5AE01455E5F4FB801CE01CB
:1022000047960E941807009791F54D8D41702B8DD0
:10221000223009F450C008F040C0222309F445C020
:10222000213009F445C026E030E086EF9FEF28C05A
:10223000406C2FCF288539854A855B85B801CE0152
:1022400047960E94AF0E009791F4AB2809F47ECF19
:10225000CD2809F47BCF2C853D854E855F85B8015F
:10226000CE0147960E94AF0E009709F46FCF40E071
:1022700026E030E005C040E026E030E089EF9FEF47
:1022800090932705809326053093250520932405F8
:10229000892B31F10E94EC01E6CD243091F070F0F1
:1022A000253009F625E030E0C0CF30E020E0E8CF6F
:1022B00021E030E0BACF22E030E0B7CF23E030E0D9
:1022C000B4CF24E030E0B1CF40E026E030E088EF4A
:1022D0009FEFD6CF40E026E030E087EF9FEFD0CFF2
:1022E0004093D20481E0809321056CEC71E084EE90
:1022F00093E00E946D0E0E94F901882309F454C1F5
:10230000C090CE04D090CF04E090D004F090D104DF
:1023100087EE91E00E94810E6F8F78A389A39AA324
:10232000E0911A05F0911B05B701A60180911805EF
:10233000909119050995C090FD04D090FE04FFEF1F
:10234000CF16DF0609F086C081E090E09093FE048E
:102350008093FD04CC24C394D12CE0900405F0902C
:10236000050580900805909009059C8A8B8AE80CE9
:10237000F91C8F8D98A10396B0E0A0E02C013D01DF
:1023800032E0430E511C611C711CAE014F5F5F4F68
:10239000C301B2010E94EB06029609F463C0EB8907
:1023A000FC89EE15FF0509F42AC182E880838B8938
:1023B0009C8901969C8B8B8BA3019201B701CE0166
:1023C00043960E9441068C01892B09F0E1C0A601C9
:1023D000B701CE0143960E942E078C01892B09F08C
:1023E000D7C02F8D38A149A15AA1B701CE0143967C
:1023F0000E94AF0E8C01892B09F0CAC0EB89FC89C1
:10240000EE15FF0509F4FBC010828B899C890196AB
:10241000881999090E9462018C01892B09F0B8C0C2
:102420001C8E1B8E49E050E070E060E0CE014B96C0
:102430000E9412088C01892B09F0AAC08B8D9C8DFB
:102440000997F1F00FB6F894DEBF0FBECDBF87EF4E
:102450009FEF0FC02FEFC21AD20AD092FE04C09293
:10246000FD047BCF0FB6F894DEBF0FBECDBF89EF62
:102470009FEF90932705809326050E94EC0194C05E
:102480008091060590910705E0900A05F0900B05F4
:10249000F88EEF8AE80EF91EAE01425E5F4FB7017B
:1024A000CE0147960E9418078C01892B09F070C055
:1024B0008E8D807F803931F6AE014F5F5F4FB7015F
:1024C000CE0147960E9481068C01892B09F060C0DD
:1024D00089819A81AB81BC810397A105B10540F444
:1024E0000FB6F894DEBF0FBECDBF88EF9FEFC1CF10
:1024F000AE01475E5F4FB701CE0147960E94980735
:102500008C01892B09F044C0FE0173963F016F01D5
:10251000912C812C80E8282E312C92E0492E512CD0
:1025200089819A810297881699061CF090E080E0D4
:102530005CC0F2E08F16910441F1AE01435E5F4F43
:10254000B701CE0147960E941807009701F58D8DBF
:10255000813089F030F08230A1F0F60131822082A2
:1025600003C0D6011D921C92FFEF8F1A9F0A22E032
:10257000C20ED11CD5CF21E030E0F601318320839B
:10258000F3CFD6014D925C92EFCF84EF9FEF8C0199
:102590000FB6F894DEBF0FBECDBF10932705009392
:1025A0002605012B09F069CFA2960FB6F894DEBF7D
:1025B0000FBECDBFDF91CF911F910F91FF90EF9094
:1025C000DF90CF90BF90AF909F908F907F906F9053
:1025D0005F904F903F902F900895D3012D913D91A2
:1025E0003D012038310529F0019688159905A9F794
:1025F000CFCF05EF1FEFCCCF8FEF9FEF38CE0FEF90
:102600001FEFC6CF0F931F93CF93DF93EC01888109
:102610009981009759F02A813B812617370730F0BE
:1026200081E0DF91CF911F910F9108958B016F5F32
:102630007F4F0E94EC30009759F0998388831B8369
:102640000A832C813D81232B59F7FC011082E8CFAE
:1026500080E0E7CFEF92FF920F931F93CF93DF932A
:102660006115710541F480E0DF91CF911F910F91C9
:10267000FF90EF90089541155105B1F07B01EC01F9
:102680000C811D81040F151FB8010E9402138823BD
:1026900051F3288139818C819D81B701820F931F6D
:1026A0000E94D3311D830C8381E0DECFCF93DF9373
:1026B000EC01FB0101900020E9F73197AF01461BC7
:1026C000570B0E942A13811103C0CE010E94930E62
:1026D000CE01DF91CF910895CF93DF93EC01FB0101
:1026E00044815581608171810E942A13811103C048
:1026F000CE010E94930ECE01DF91CF910895EF920B
:10270000FF920F931F93CF93DF93EC017B018A011C
:10271000BA010E94021381110BC0CE010E94930ED8
:10272000CE01DF91CF911F910F91FF90EF9008950F
:102730001D830C83B701888199810E94D331F0CF2A
:10274000EF92FF920F931F93CF93DF93CDB7DEB736
:10275000A1970FB6F894DEBF0FBECDBF7C01CB01B1
:10276000BA01F7011182108213821282158214823B
:102770008E010F5F1F4F22E044E00E94BD2A0097A8
:10278000C9F0FC0101900020E9F73197AF01481B27
:10279000590BBC01C7010E947F13A1960FB6F89494
:1027A000DEBF0FBECDBFDF91CF911F910F91FF9084
:1027B000EF900895C7010E94930EEFCFFC011182A4
:1027C000108213821282158214826115710551F0F4
:1027D000FB0101900020E9F73197AF01461B570B31
:1027E0000C947F1308954F925F926F927F928F9215
:1027F0009F92AF92BF92CF92DF92EF92FF920F9390
:102800001F93CF93DF93CDB7DEB769970FB6F894D8
:10281000DEBF0FBECDBF4B0129013A01AB8ABC8A96
:10282000CD8ADE8AEF8AF88E098FCDB6DEB60E89A4
:102830001F89A88CB98CC90101962DB73EB7281BFA
:10284000390B0FB6F8943EBF0FBE2DBF8DB79EB7A4
:1028500001967C01A201B3010E94C3314E0C5F1CA2
:10286000D2011C920115110521F0F801EA0DFB1DA2
:102870001082D4011496ED91FC911597309739F19F
:102880009501A801B7018D919C9109950FB6F89417
:10289000DEBE0FBECDBE0FB6F894DEBE0FBECDBEFF
:1028A00069960FB6F894DEBF0FBECDBFDF91CF9112
:1028B0001F910F91FF90EF90DF90CF90BF90AF905E
:1028C0009F908F907F906F905F904F900895F4014C
:1028D00082819381892BD1F2B701CE0107960E94A4
:1028E000DE136EE871E0CE010D960E94DE13011535
:1028F000110509F1B801CE0101960E94DE138D8504
:102900009E85009769F169817A816115710531F1C0
:102910004F8558892D813E8142175307F8F00E9458
:10292000D3318D819E819A8B898B1E821D82CE012F
:1029300001960E94A50ED4011296ED91FC91BE0164
:10294000635F7F4FCE0107960995CE010D960E94D9
:10295000A50ECE0107960E94A50E98CF0E94633067
:1029600089819A819E878D878B819C81988B8F87A7
:102970008D819E819A8B898B1A8219821C821B827F
:10298000D4CFEF92FF920F931F93CF93DF9300D09A
:1029900000D000D0CDB7DEB77C018B016EEE71E0C8
:1029A000CE0101960E94DE13B701CE0101960E946E
:1029B0006C1369EF71E00E945613B8010E946C130A
:1029C0000E94DE0CCE0101960E94A50E26960FB63F
:1029D000F894DEBF0FBECDBFDF91CF911F910F9155
:1029E000FF90EF900895AF92BF92CF92DF92EF9257
:1029F000FF920F931F93CF93DF9300D000D0CDB7FA
:102A0000DEB78C016B017A018091E1038333E9F435
:102A10005B016801C40ED51EC016D106A9F10E9443
:102A2000D70A8FE00E94E20A812F0E94E20A802FDB
:102A30000E94E20A0F5F1F4F80E00E94E20AF50148
:102A400081935F010E94CD0AE7CF843369F50E942C
:102A5000D70A19830A838F2D8F778B83EC8264E0EA
:102A600070E0CE0101960E94B30AA70170E060E019
:102A7000C6010E94CC31E114F10421F0B701C60176
:102A80000E94B30A0E94CD0AC7010F900F900F90C9
:102A90000F90DF91CF911F910F91FF90EF90DF90FA
:102AA000CF90BF90AF9008950E94D70A0F3F1105B5
:102AB00009F030F419820A831B8263E070E0D1CF01
:102AC00017FD0BC019820A8333E0169507953A95D6
:102AD000E1F7007E08600B83F0CFC80126E09695F1
:102AE00087952A95E1F7807E19830A830115104C9A
:102AF00018F480618B83E1CF8861FCCFCF93DF93A3
:102B00001F92CDB7DEB72091E20330E0322F2227AB
:102B1000260F371F90E0982F882741E050E0BE0134
:102B20006F5F7F4F820F931F0E94F31489810F9074
:102B3000DF91CF910895CF93C82F462F61E070E0C9
:102B40000E94F50B61E070E08C2F0E947E158111D0
:102B5000F9CFCF910895CF93C82F80E591E00E94DF
:102B60000A0168E070E08C2FCF910C949B15CF93F5
:102B7000C82F80E591E00E940A0160E170E08C2F8F
:102B8000CF910C949B15CF93DF93EC01888D84300B
:102B900020F40E94B71584E0888FDF91CF910895CB
:102BA000CF93C82F80E591E00E940A0163E070E0B6
:102BB0008C2FCF910C947E15CF93DF93EC018C85F5
:102BC0008430D0F40E94D015843189F0882379F0C4
:102BD000883169F021E08C3159F4E881F981008471
:102BE000F185E02DCE01099521E0892B09F420E043
:102BF000822FDF91CF91089580E0FBCFCF92DF92BB
:102C0000EF92FF92CF93DF93EC018C85843068F4D0
:102C10000E94AB150E9429036B017C018C850E94E8
:102C2000D015811109C084E08C87DF91CF91FF908E
:102C3000EF90DF90CF90089561E070E080E090E049
:102C40000E94F7020E942903AB01BC014C195D09E7
:102C50006E097F098D859E85B0E0A0E04817590771
:102C60006A077B07D8F28C850E94B715DCCFCF931B
:102C7000FC01C08D80E591E00E940A0160E270E0F5
:102C80008C2F0E949B1562E070E08C2F0E947E15B5
:102C900084FD16C062E070E08C2F0E947E1583FFD9
:102CA0000AC048E162E070E08C2F0E94F50B80E0E2
:102CB00090E0CF91089580E591E00E940A01E3CF72
:102CC00040E162E070E08C2F0E94F50B81E0F0CFD4
:102CD000CF93DF931F92CDB7DEB741E050E0BE0146
:102CE0006F5F7F4F90E080E00E94F31489810F9026
:102CF000DF91CF910895CF93DF93C4E1D0E00E949C
:102D00006816882361F061E070E080E090E00E9446
:102D1000F7022197A1F780E0DF91CF91089581E03C
:102D2000FBCFCF92DF92EF92FF920F931F93CF933F
:102D3000DF93CDB7DEB7C454D1090FB6F894DEBF28
:102D40000FBECDBFFC0182819381A481B581239602
:102D50008CAF9DAFAEAFBFAF239721E023962FAFCF
:102D6000239723964CAD5DAD6EAD7FAD23974BABF6
:102D70005CAB6DAB7EAB89AF9AAFABAFBCAF8DA791
:102D80009EA7AFA7B8AB28AB4DA55EA56FA578A948
:102D90004FA358A769A77AA72EAB4BA95CA96DA929
:102DA0007EA949A35AA36BA37CA38B8F9C8FAD8F65
:102DB000BE8F4AE851E05C8B4B8B3FEF3D8B3E8BE7
:102DC0003F8B188E5E874D872AA7CFA0D8A4E9A491
:102DD000FAA4CF86D88AE98AFA8A2CA309A11AA173
:102DE0002BA13CA109871A872B873C875A834983EB
:102DF0008B839C83AD83BE838091E3038111AFC03D
:102E000060E372E080E090E00E94F702DFB6F894A1
:102E10000EE911E032EBE32E31E0F32E8091E00376
:102E2000811125C0F8018491F7019491E82FF0E019
:102E3000EE0FFF1FE657FE4FA591B4918C9198239A
:102E400021F461E08AE00E94730261E08AE00E945E
:102E5000A1028CB580618CBD8CB580648CBD61E0B5
:102E60008DE00E94A10261E08BE00E94A1028091AE
:102E7000E0038F5F8093E003DFBEF8010491E02F51
:102E8000F0E0EE0FFF1FE058FE4F85919491909374
:102E9000DF038093DE03F701E490E092DD0361E05D
:102EA0008AE00E94A1020E94CD0A80E591E00E9482
:102EB0000A0184E38093E10380E80E94990B0E9459
:102EC0007B16882309F481C088E00E94990B0E9438
:102ED0006816883009F079C080E10E94990B0E9441
:102EE0006816803109F071C080E00E94990B0E9441
:102EF0006816182F811169C041E050E0BE016D5B7A
:102F00007F4F8FE190E00E94F31424968FAD2497B9
:102F1000833009F05AC080E48093E20342E06EE11E
:102F200070E0812F0E94F50B42E06FE170E0812F8D
:102F30000E94F50B1F5F143089F740E06EE170E0EE
:102F4000812F0E94F50B40E06FE170E0812F0E941D
:102F5000F50B1F5F183089F781E08093E30380E56C
:102F600091E00E940A0146E050E066E071E089E0ED
:102F700090E00E94E90A44E050E0BE016D5F7F4F9F
:102F80008FE090E00E94E90A44E050E0BE01615FFA
:102F90007F4F81E090E00E94E90A44E050E0BE01EA
:102FA0006B5E7F4F85E090E00E94E90A81E08C87AC
:102FB00089859A85AB85BC858093A7049093A804E6
:102FC000A093A904B093AA046FC087E38093E103A0
:102FD00080E80E94990B0E947B16882339F188E0D3
:102FE0000E94990B0E946816883001F580E10E94CA
:102FF000990B0E946816182F8031C1F480E00E945E
:10300000990B0E946816811111C041E050E0BE0189
:103010006D5B7F4F89E390E00E94F31424968FAD9F
:103020002497843019F41093E20396CF83E38093BE
:10303000E10380E80E94990B0E947B16882391F19E
:1030400080E10E94990B0E946816803159F582E157
:103050000E94990B0E946816823121F580E00E943F
:10306000990B0E94681681111DC084E08093E203D1
:1030700015E525961FAF259741E050E0BE016C5B3A
:103080007F4F8BE190E00E94E90A24961FAF2497BE
:1030900041E050E0BE016D5B7F4F8AE190E00E940D
:1030A000E90A5ACF1092E103CC5BDF4F0FB6F894D8
:1030B000DEBF0FBECDBFDF91CF911F910F91FF906B
:1030C000EF90DF90CF9008951F93CF93DF931F92DF
:1030D000CDB7DEB7182F80E591E00E940A01812F5D
:1030E0000E94AC0B27E0129FF0011124EF53FC4F1C
:1030F00022813381377041E050E0BE016F5F7F4F26
:10310000820F931F0E94F31489810F90DF91CF915A
:103110001F910895FC01808D843040F4218D328D03
:10312000232B21F00E94641890E008958FEF9FEF09
:103130000895CF93DF93FC012485243028F08FEF8E
:103140009FEFDF91CF910895EC010190F081E02D88
:103150000084F185E02D0995892B89F38C850E94E7
:10316000641890E0EECFDA01E091E203F0E0FE2F88
:10317000EE27E60FF71F90E0982F8827A901BD01E1
:103180008E0F9F1F0C94F3148F929F92AF92BF9259
:10319000CF92DF92EF92FF921F93CF93DF93CDB741
:1031A000DEB72C970FB6F894DEBF0FBECDBF2091CF
:1031B000E10314E0222339F16B017C0180E591E009
:1031C0000E940A015E0127E0A20EB11C450110E039
:1031D00063E070E0812F0E947E15F40181934F011E
:1031E000882349F11F5F143099F710E0F5018191B0
:1031F0005F018D31D9F08831C9F08A518230B0F049
:103200001F5F143099F7812F2C960FB6F894DEBF0C
:103210000FBECDBFDF91CF911F91FF90EF90DF9058
:10322000CF90BF90AF909F908F90089560E170E035
:10323000812F0E949B15A12EB12C83EE93E0019764
:10324000F1F742E870E060E0812F0E94F50B4FEF4C
:1032500062E070E0812F0E94F50BB601C114D10429
:1032600091F4809104019091050101968115F0EC93
:103270009F0708F45CC0909305018093040160915E
:10328000040170910501812F0E94E00B86E0E2E1CC
:10329000F1E0DE01119601900D928A95E1F7F701B8
:1032A00083818F778C8384818D8385818E83A70131
:1032B0004E5F5F4F24E030E06CE070E0812F0E94B1
:1032C000BA0BB601812F0E94CB0B26E030E0AE0195
:1032D0004F5F5F4F66E070E0812F0E94BA0B61E0A4
:1032E00070E0812F0E949B1527E02A9DC0012B9D35
:1032F000900D11249C012F533C4F7901F90111824B
:10330000108222E030E0AE01455F5F4F68E270E07E
:10331000812F0E94B3188B859C8598278927982731
:10332000F701938382831682158214826CCF80E02A
:1033300090ECA1CFCF92DF92EF92FF920F931F9369
:10334000CF93DF9300D000D000D0CDB7DEB78C0193
:103350006B017A01FC01808D843010F40E94B71556
:103360008AE891E09A838983F60182819381A4811E
:10337000B5818B839C83AD83BE83B701CE0101965B
:103380000E94C418F801808F8430A0F4F586E4868A
:10339000128E118E81E026960FB6F894DEBF0FBE16
:1033A000CDBFDF91CF911F910F91FF90EF90DF90F4
:1033B000CF90089580E0EFCFAF92BF92CF92DF928F
:1033C000EF92FF920F931F93CF93DF9300D000D023
:1033D00000D0CDB7DEB7082F6B0180E591E00E94E9
:1033E0000A019E012F5F3F4F7901590110E063E010
:1033F00070E0812F0E947E15F50181935F01882383
:1034000041F11F5F143099F710E0F70181917F01BE
:103410008D31D1F08831C1F08A518230A8F01F5F20
:10342000143099F7812F26960FB6F894DEBF0FBEA1
:10343000CDBFDF91CF911F910F91FF90EF90DF9063
:10344000CF90BF90AF90089560E170E0812F0E940F
:103450009B15E12EF12C83EE93E00197F1F7402FBD
:1034600070E060E0812F0E94F50B4FEF62E070E0AA
:10347000812F0E94F50BB601CD2889F480910401BB
:103480009091050101968115F0EC9F0798F19093BA
:103490000501809304016091040170910501812F61
:1034A0000E94E00B61E070E0812F0E949B1527E0F5
:1034B0002E9DC0012F9D900D11249C012F533C4F38
:1034C0007901F9011182108222E030E0AE014B5FF8
:1034D0005F4F68E270E0812F0E94B3188D819E815A
:1034E000982789279827F70193838283168215826C
:1034F000148298CF80E090ECCACFCF92DF92EF9207
:10350000FF921F93CF93DF93EC017B016A018C85BF
:10351000843048F40E94D015882319F08C850E94CD
:10352000AB1584E08C87F70182819381A481B581FA
:103530000097A105B10551F490E080E0DF91CF91B3
:103540001F91FF90EF90DF90CF9008958F3F9F4F96
:10355000AF4FBF4F89F38091E103811103C084E035
:103560008C87EACF70E060E081E20E94DC19182FBE
:103570008C87843008F780E591E00E940A01A7015A
:103580004E5F5F4F24E030E06CE070E0812F0E94DE
:10359000BA0BB601812F0E94CB0B64E070E0812F43
:1035A0000E949B150E9429036B017C018C850E945F
:1035B000D015873109F18C31F9F0882309F4BCCF9B
:1035C0000E942903AB01BC014C195D096E097F09FA
:1035D0008D859E85B0E0A0E084179507A607B70704
:1035E00038F061E070E080E090E00E94F702DECF0A
:1035F0008C850E94B715B3CF81E090E09FCF0F93E9
:103600001F93CF93DF93EC018B01888D843010F4EE
:103610000E94B7158091E103811107C094E0988F53
:10362000DF91CF911F910F910895B80182E00E9420
:10363000DC19888F843030F41D870C871A8E198E20
:1036400081E0EECF80E0ECCF7F928F929F92AF929D
:10365000BF92CF92DF92EF92FF920F931F93CF937F
:10366000DF9300D0CDB7DEB7782E8B014A01590128
:1036700022E030E0AE014F5F5F4F64E270E00E94F5
:10368000B318E980FA80FE24EF24FE24E00EF11E38
:10369000970137704091E103072D10E0433309F0A3
:1036A00042C0085F1F4F102F0027110F110F110F7D
:1036B000C901800F911F4733C9F1A9014A0D5B1D54
:1036C0004130584098F160E078E06B01C21AD30AAB
:1036D000A601B4010E94E90AA5014C195D09B401D3
:1036E0006C0D7D1DC8010E94E90AEA0CFB1CF982E1
:1036F000EA8222E030E0AE014F5F5F4F64E270E0AB
:10370000872D0E94BA0B0F900F90DF91CF911F91E0
:103710000F91FF90EF90DF90CF90BF90AF909F9070
:103720008F907F900895005F1F4FBDCFA501B4011A
:10373000DACFEF92FF921F93CF93DF9300D0CDB7F4
:10374000DEB7182F22E030E0AE014F5F5F4F60E23E
:1037500070E00E94B318E980FA80FE24EF24FE2472
:1037600022E030E0AE014F5F5F4F60E270E0812FFA
:103770000E94B31889819A81982789279827E8168B
:10378000F90689F487E0189FF0011124EF53FC4FEC
:10379000F582E482C7010F900F90DF91CF911F91C6
:1037A000FF90EF9008957C01DBCF1F93CF93DF93C1
:1037B000182F80E591E00E940A01812F0E94991B39
:1037C000EC0163E070E0812F0E947E15873121F0CB
:1037D0008C3111F0D0E0C0E0CE01DF91CF911F918C
:1037E0000895CF93DF93EC018C85843060F40E94C0
:1037F000D015873111F08C3131F48C850E94D51BA6
:103800008115984088F3DF91CF910895FC0184855C
:10381000843010F40C94D51B90E080E008959F92C2
:10382000AF92BF92CF92DF92EF92FF920F931F93CE
:10383000CF93DF938C015B01942EE52EFC01C688AB
:10384000D788F08C80E591E00E940A018F2D0E94BC
:10385000991BC92DDE2D8C179D0708F4EC019E01E4
:10386000A501B6018F2D0E94241BF8018689978936
:103870008C0F9D1F978B868BCE01DF91CF911F916F
:103880000F91FF90EF90DF90CF90BF90AF909F90FF
:1038900008958F929F92AF92BF92CF92DF92EF9254
:1038A000FF920F931F93CF936C015B018A01FC0180
:1038B000C485C430F0F57A014130584018F0E12C4D
:1038C00088E0F82E80E591E00E940A018C2F0E948A
:1038D000991B4C0163E070E08C2F0E947E158731AC
:1038E00011F08C3149F58E149F0460F380E591E06E
:1038F0000E940A019701A50170E060E08C2F0E94F0
:10390000241B60E270E08C2F0E949B1562E070E047
:103910008C2F0E947E1584FD17C063E070E08C2F11
:103920000E947E1581110BC081E090E0F601938327
:10393000828310E000E010C0F12CE12CD7CF80E5AD
:1039400091E00E940A01E2CF40E162E070E08C2F3A
:103950000E94F50BEF2841F3C801CF911F910F9101
:10396000FF90EF90DF90CF90BF90AF909F908F909F
:103970000895FF920F931F93CF93DF9300D0CDB79D
:10398000DEB7F82E22E030E0AE014F5F5F4F66E217
:1039900070E00E94B31809811A81102701271027AF
:1039A00022E030E0AE014F5F5F4F66E270E08F2DA6
:1039B0000E94B31889819A81982789279827081728
:1039C000190749F4C8010F900F90DF91CF911F9113
:1039D0000F91FF9008958C01E3CF1F93CF93DF9356
:1039E000182F87E0189FE0011124CF53DC4F888106
:1039F0009981009761F480E591E00E940A01812F8E
:103A00000E94B91C2E81821B910999838883DF91C2
:103A1000CF911F910895FC018485843010F40C949B
:103A2000ED1C90E080E008954F925F927F928F921C
:103A30009F92AF92BF92CF92DF92EF92FF920F933D
:103A40001F93CF93DF9300D0CDB7DEB7782E6B01F5
:103A50004A01A82EB12C27E0829FC0011124FC014D
:103A6000EF53FC4F7F010081118180E591E00E94BE
:103A70000A010815190554F4872D0E94B91CF70195
:103A800026818C01021B1109118300830115110588
:103A900029F563E070E0872D0E947E15843159F08E
:103AA000882349F001E010E08C3111F410E000E0CF
:103AB000119501951109C8010F900F90DF91CF91D9
:103AC0001F910F91FF90EF90DF90CF90BF90AF903C
:103AD0009F908F907F905F904F90089580169106F1
:103AE0000CF4840187E08A9DF0018B9DF00D112478
:103AF000EF53FC4FE280F380C114D10451F1270150
:103B0000F7E05F22872D0E94AC0B840D951D20915C
:103B1000E103273309F453C09801240D351D2130EA
:103B2000384008F44CC020E038E04901841895087A
:103B3000A401B6010E94F3142601480C591C680127
:103B4000C818D908872D0E94AC0BA601B2010E94AB
:103B5000F314E00EF11E87E08A9DF0018B9DF00DBD
:103B60001124EF53FC4FF382E28220813181201B2C
:103B7000310B318320838681800F912F911D8A3FE5
:103B8000910510F4232BF1F487E08A9DF0018B9DC1
:103B9000F00D1124EF53FC4F1682F982EA8222E0E5
:103BA00030E0AE014F5F5F4F68E270E0872D0E940A
:103BB000BA0B60E470E0872D0E949B157CCFA801B2
:103BC000B601C5CF868377CFCF93DF93FC01218DDC
:103BD000328D2115310529F48FEF9FEFDF91CF91C1
:103BE0000895EC01808D4217530708F0A9010E9447
:103BF000141D1816190684F7298D3A8D281B390BC8
:103C00003A8F298FEBCF0F931F93CF93DF931F92A0
:103C1000CDB7DEB7FC01218D328D232B41F48FEF20
:103C20009FEF0F90DF91CF911F910F9108958C011D
:103C300041E050E0BE016F5F7F4FFC01808D0E942C
:103C4000141D181619065CF7F801818D928D0197E5
:103C5000928F818F898190E0E4CF0F931F93CF9350
:103C6000DF93CDB7DEB728970FB6F894DEBF0FBE4F
:103C7000CDBF8C01D80159964D915C915A97411551
:103C8000510551F0ED91FC91048CF58DE02D70E023
:103C900060E0C8010995EECFF801808D0E94ED1C0F
:103CA000892BB1F148E050E0BE016F5F7F4FD80132
:103CB00058968C910E94141D18161906F4F4D80118
:103CC000509684E0FE01319601900D928A95E1F7BD
:103CD0008D8190E0982F88272E81820F911DF80109
:103CE000958B848B8F81282F30E0322F2227888577
:103CF000820F932F911D928F818F28960FB6F89483
:103D0000DEBF0FBECDBFDF91CF911F910F91089500
:103D100090E080E0F2CF4F925F926F927F928F920D
:103D20009F92AF92BF92CF92DF92EF92FF920F934A
:103D30001F93CF93DF93CDB7DEB763970FB6F89499
:103D4000DEBF0FBECDBF7C016B013A01FB0120E05D
:103D500090E080E06AE03191332309F461C040EDE6
:103D6000430F4A3008F04DC0689FA001699F500D75
:103D70001124CA01C097830F911D37FD9A958F3F7B
:103D8000910549F340F3F7014281538164817581C4
:103D90008091B3049091B404A091B504B091B6049D
:103DA000481759076A077B0709F40DC28701085FA6
:103DB0001F4F0E9429036F7077277C5FC8010E9404
:103DC000FF1A813009F004C28AE891E09A8389835E
:103DD000F70182819381A481B5818B839C83AD831C
:103DE000BE8345E350E0BE016F5F7F4FC8010E9474
:103DF0004A0C892BA9F5D12CC12CC8010E94C315EE
:103E000017C03E3209F0BFCF233009F4BCCFD30135
:103E1000A20FB11D12968C932F5F90E080E09BCF94
:103E2000233009F0B0CFF3018583CC24C394D12C87
:103E3000C60163960FB6F894DEBF0FBECDBFDF910B
:103E4000CF911F910F91FF90EF90DF90CF90BF9097
:103E5000AF909F908F907F906F905F904F9008955C
:103E60000E942903F7017783668342E050E0B7019F
:103E70006A5F7F4FC8010E940F1C81E090E09A8327
:103E8000898342E050E0BE016F5F7F4FC8010E940E
:103E90000F1C80E091E09A83898342E050E0BE01EC
:103EA0006F5F7F4FC8010E940F1C1A82198242E087
:103EB00050E0BE016F5F7F4FC8010E940F1C42E0BF
:103EC00050E0BE016F5F7F4FC8010E940F1C42E0AF
:103ED00050E0BE016F5F7F4FC8010E940F1C56016A
:103EE000F6018081882301F16501F60181912F019E
:103EF000882311F08E32B1F446018A189B081814F9
:103F0000190474F48D8641E050E0BE01635F7F4F79
:103F1000C8010E940F1CA401B501C8010E940F1C1A
:103F20005201DECF6201E1CF1D8641E050E0BE01CB
:103F3000635F7F4FC8010E940F1CC12CDD24D39406
:103F4000DA82C98242E050E0BE016F5F7F4FC80154
:103F50000E940F1CDA82C98242E050E0BE016F5F0E
:103F60007F4FC8010E940F1CC8010E943716892B81
:103F700009F441CFF3E0AF2EB12C230122E0420E31
:103F8000511CD4C0F7014281538164817581808DB9
:103F9000918DA28DB38D481759076A077B0709F0E9
:103FA00008C1848D958DC59709F003C181A192A1A7
:103FB0005DEFC52EDD24DA940C970CF4ADC04CE017
:103FC00050E0BE016F5F7F4FC8010E94E41D8B81EE
:103FD0009C819827892798279A8B898BF70146819E
:103FE000578129813A814217530709F0E7C097FFAB
:103FF000E5C08F7092703BEFC32EDD24DA94892BDD
:1040000009F08AC06F8078847624672476242AEFAA
:10401000C22EDD24DA946114710409F47DC0D12C20
:10402000C12C8D819E81982789279827C816D9068B
:10403000F8F441E050E0BE01635F7F4FC8010E9489
:10404000E41D4D85442331F050E070E060E0C8018C
:104050000E94E41D8D858111ECCF44E050E070E0BA
:1040600060E0C8010E94E41DFFEFCF1ADF0AD9CF3C
:10407000912C812C41E050E0BE016D5E7F4FC80164
:104080000E94E41D4B89842F807C09F06CC044237E
:1040900031F050E070E060E0C8010E94E41D8B89BF
:1040A0008111E8CF42E050E0BE01615F7F4FC8015F
:1040B0000E94E41D42E050E0BE01635F7F4FC801F3
:1040C0000E94E41D44E050E070E060E0C8010E94FE
:1040D000E41D42E050E0BE016F5E7F4FC8010E94C8
:1040E000E41D8F85988949895A898115914009F085
:1040F00043C0CD84DE84DC24CD24DC2481E0C816DA
:10410000D104D1F54115544009F04AC044E050E0D3
:10411000B201C8010E94E41D21E0A21AB10809F40D
:104120006CCEFFEFCF16DF0609F067CE0E942903A1
:104130003B014C01C8010E942D1E181619060CF4F3
:1041400021CF0E94290366197709880999096938DE
:1041500073418105910548F562E370E080E090E0ED
:104160000E94F702E7CF41E050E070E060E0C80154
:104170000E94E41D1B8A93CF54274527542770E0E3
:1041800060E0C8010E94E41DFFEF8F1A9F0A6814C7
:10419000790409F06FCF96EFC92EDD24DA94BCCFF5
:1041A000E7EFCE2EDD24DA94B7CFCC24CA94DC2CF2
:1041B000B3CF6EEFC62EDD24DA94AECF4CEFC42E13
:1041C000DD24DA94A9CF8EEFC82EDD24DA9430CE28
:1041D000D12CC12C2DCECF92DF92EF92FF920F9374
:1041E0001F93CF93DF93CDB7DEB7AF970FB6F89499
:1041F000DEBF0FBECDBF7C016A010AE811E01A8361
:1042000009831C861B8688EE93E0A0E0B0E08D87D2
:104210009E87AF87B88B8CE191E09A878987188F4A
:104220000F8B198E1A8E1B8E1C8E84E089A31BA700
:104230000AA71CA61DA61EA61FA68091A7049091E2
:10424000A804A091A904B091AA048EA39FA3A8A733
:10425000B9A78B839C83AD83BE8318861F82AE0172
:10426000465D5F4FCE0101960E948B1E8130910505
:10427000B1F4D701ED91FC910488F589E02D1DA3DF
:104280000CA38CA59DA5AEA5BFA58EA39FA3A8A793
:10429000B9A7A601BE016C5D7F4FC7010995AF9616
:1042A0000FB6F894DEBF0FBECDBFDF91CF911F9147
:1042B0000F91FF90EF90DF90CF900895CF92DF9213
:1042C000EF92FF920F931F93CF93DF93CDB7DEB79B
:1042D000AF970FB6F894DEBF0FBECDBF8C016B0158
:1042E0007A018AE891E09A8389831B821C821D826D
:1042F0001E821C861B8648EE53E060E070E04D870E
:104300005E876F87788B2CE131E03A872987988F19
:104310008F8B198E1A8E1B8E1C8E24E029A39BA7CF
:104320008AA71CA61DA61EA61FA6D8011C968C91A6
:10433000843060F40E94D015882321F0F801848530
:104340000E94AB1584E0D8011C968C938091A70441
:104350009091A804A091A904B091AA048EA39FA350
:10436000A8A7B9A78B839C83AD83BE8318861F82C1
:10437000AE01465D5F4FB601CE0101960E948B1ED5
:104380000097C1F0D801ED91FC910684F785E02DEE
:104390008AE891E09DA38CA38CA59DA5AEA5BFA5A1
:1043A0008EA39FA3A8A7B9A7A701BE016C5D7F4FED
:1043B000C8010995AF960FB6F894DEBF0FBECDBF0A
:1043C000DF91CF911F910F91FF90EF90DF90CF90F1
:1043D0000895CF93DF931F92CDB7DEB741E050E051
:1043E000BE016F5F7F4FFC0184850E94141D18166B
:1043F000190634F4898190E00F90DF91CF910895F0
:104400008FEF9FEFF9CFFC018485843010F40C947A
:10441000141D90E080E008950F931F93CF93DF93D6
:1044200000D0CDB7DEB7FC0124852430E0F48C0148
:1044300080E591E00E940A0122E030E0AE014F5F8A
:104440005F4F60E170E0F80184850E94B3188981B4
:104450009A819827892798270F900F90DF91CF9105
:104460001F910F91089590E080E0F6CFEF92FF92B8
:104470000F931F93CF93DF9300D000D0CDB7DEB75B
:104480008C017B01FB0184858430A8F08AE891E0EF
:10449000F801918380831282138214821582C801ED
:1044A0000F900F900F900F90DF91CF911F910F9170
:1044B000FF90EF90089580E591E00E940A0124E0CA
:1044C00030E0AE014F5F5F4F6CE070E0F701848534
:1044D0000E94B3188AE891E0F80191838083898172
:1044E0009A81AB81BC8182839383A483B583D7CF28
:1044F0000F931F93CF93DF9300D0CDB7DEB7FC01AE
:1045000024852430E0F48C0180E591E00E940A01CA
:1045100022E030E0AE014F5F5F4F64E070E0F801F1
:1045200084850E94B31889819A81982789279827C2
:104530000F900F90DF91CF911F910F91089590E010
:1045400080E0F6CF1F920F920FB60F9211242F9397
:104550003F938F939F93AF93BF938091B9039091B3
:10456000BA03A091BB03B091BC033091B80323E020
:10457000230F2D3758F50196A11DB11D2093B803C7
:104580008093B9039093BA03A093BB03B093BC0389
:104590008091BD039091BE03A091BF03B091C00371
:1045A0000196A11DB11D8093BD039093BE03A093FE
:1045B000BF03B093C003BF91AF919F918F913F9183
:1045C0002F910F900FBE0F901F90189526E8230F84
:1045D0000296A11DB11DD2CF1F920F920FB60F925E
:1045E00011242F933F934F935F936F937F938F93F8
:1045F0009F93AF93BF93EF93FF9384EE93E00E945A
:10460000B205FF91EF91BF91AF919F918F917F91F3
:104610006F915F914F913F912F910F900FBE0F902F
:104620001F9018951F920F920FB60F9211242F937F
:104630008F939F93EF93FF93E091F403F091F50331
:104640008081E091FA03F091FB0382FD1BC0908111
:104650008091FD038F5F8F732091FE03821741F0DD
:10466000E091FD03F0E0EC51FC4F958F8093FD034A
:10467000FF91EF919F918F912F910F900FBE0F900F
:104680001F9018958081F4CF0F931F93CF93DF93E2
:10469000E4EEF3E01382128248EE53E060E070E053
:1046A000448355836683778386E491E09183808396
:1046B00085EC90E09587848784EC90E097878687E7
:1046C00080EC90E0918B808B81EC90E0938B828BDF
:1046D00082EC90E0958B848B86EC90E0978B868BB8
:1046E000118E128E138E148EE1E8F4E08AE891E0C8
:1046F000918380831282138214821582E7E8F4E0AA
:10470000918380831282138214821582EDE8F4E093
:10471000918380831282138214821582E3E9F4E08C
:10472000918380831282138214821582E9E9F4E076
:10473000918380831282138214821582EFE9F4E060
:10474000918380831282138214821582EBEAF4E053
:10475000918380831282138214821582E5EAF4E049
:10476000918380831282138214821582E1EBF4E03C
:10477000918380831282138214821582E7EBF4E026
:10478000918380831282138214821582E0E5F5E022
:10479000918380831282138214821582ADE3B5E087
:1047A00022E015962C9315972BE016962C931697CE
:1047B000EAEAF1E0E4911796EC931797E6E9F1E065
:1047C000E4911896EC93189700E81EE320E030E09F
:1047D0001D960D931D932D933C935097EEE2F5E0BB
:1047E00013821282448355836683778328E531E000
:1047F0003183208324E0248728EE33E03687258721
:10480000C3ECD4E02AE030E03987288721E02A870A
:104810004B875C876D877E871F86198A188A1B8A5B
:104820001A8A9D8B8C8B1E8A1F8A188E198E1B8E5E
:104830001A8E1D8E1C8E1F8E1E8E19A218A21BA2F0
:104840001AA21DA21CA21EA21FA218A619A61AA671
:104850001BA61CA61DA61FA61EA618AA19AA1AAA40
:104860001BAA1CAA1DAA1EAA1FAA19AE18AEEDEFFC
:10487000F4E084E2DF011D928A95E9F710922105A8
:1048800010922305109222051092250510922405FE
:1048900010922705109226051092280510922905DE
:1048A00010922A0510922B0510922D0510922C05BE
:1048B00080E890E0998388839B838A8381E890E0F5
:1048C0000E94C72F9D838C8380E890E00E94C72FB1
:1048D0009F838E836DEF71E08DEB94E0DF91CF913C
:1048E0001F910F910C94DE13CF93DF93CDB7DEB7FA
:1048F000A4970FB6F894DEBF0FBECDBF789484B5F1
:10490000826084BD84B5816084BD85B5826085BDCB
:1049100085B5816085BD80916E00816080936E0059
:10492000109281008091810082608093810080914B
:1049300081008160809381008091800081608093FC
:1049400080008091B10084608093B1008091B000BC
:1049500081608093B00080917A00846080937A00B7
:1049600080917A00826080937A0080917A008160E1
:1049700080937A0080917A00806880937A00109208
:10498000C100E091F403F091F50382E08083E091AF
:10499000F003F091F1031082E091F203F091F30340
:1049A0008FEC80831092FC03E091F803F091F903FF
:1049B00086E08083E091F603F091F70380818061C7
:1049C0008083E091F603F091F70380818860808313
:1049D000E091F603F091F703808180688083E09195
:1049E000F603F091F70380818F7D80830AE811E060
:1049F0001A8309838091000190910101A091020125
:104A0000B09103018B839C83AD83BE83CE0101965D
:104A10000E94911668EE73E080E090E00E94F70239
:104A20001B821C821D821E8218870F8319861A869C
:104A30001B861C8680E591E00E940A0144E050E05C
:104A4000BE01675F7F4F8FE090E00E94F3144985BD
:104A50005A856B857C858B819C81AD81BE81481791
:104A600059076A077B0739F467E172E084EE93E047
:104A70000E946D0EFFCF6EE472E084EE93E00E9420
:104A8000CF0C1A8309831B821C821D821E8280E543
:104A900091E00E940A0144E050E0BE016D5F7F4F4B
:104AA0008FE090E00E94F31464EE73E0CE01019673
:104AB0000E94410D6CE871E084EE93E00E94CF0CFF
:104AC00062E0809142050E94A1020E942903605D7C
:104AD000774081099109609346057093470580935B
:104AE00048059093490587E380934F0561E083E093
:104AF0000E94A10261E084E00E94A10261E085E0E1
:104B00000E94A10262E088E00E94A10261E086E0CA
:104B10000E94A10261E089E00E94A10261E08AE0B6
:104B20000E94A10261E089E00E94730260E08AE0D5
:104B30000E94730260E086E00E9473020E94BF0C34
:104B40008EE295E09093D4048093D3048091C304C3
:104B50009091C4042091C7043091C8044091C504C9
:104B60005091C6046091C9047091CA04E1E0F0E07C
:104B7000F093FE04E093FD041092FF0410920005F0
:104B80001092010510920205109203057093090519
:104B900060930805509305054093040530930B0579
:104BA00020930A05909307058093060510920D0542
:104BB00010920C0510920F0510920E05109211051F
:104BC00010921005109213051092120510921505FF
:104BD0001092140510921E051092200510921F05C8
:104BE00089EE94E0909317058093160583EF94E087
:104BF00090931905809318058BE394E090931B051F
:104C000080931A0581E594E090931D0580931C051F
:104C100040E050E0BA0189EE94E00E943B04E0914C
:104C20001A05F0911B0540E050E0BA01809118058B
:104C300090911905099587EE94E090931105809362
:104C400010058DE894E090931305809312058AE196
:104C500095E0909315058093140581EE94E0909370
:104C60000F0580930E0583EF93E190930D058093DC
:104C70000C058091D5049091D604009711F00E9404
:104C800063308BE592E00E94A9319093D604809323
:104C9000D5048BE597E09093DE048093DD0483ECEC
:104CA00094E09093E2048093E10481EC94E190938A
:104CB000E4048093E3041092E6041092E5040E9459
:104CC000EB0E9E01275E3F4F3CA32BA343EF242E08
:104CD00033243A940E943503882341F080914305A0
:104CE0008C3009F463C048F48B3001F1C12CD12C15
:104CF00020ECE22E2FE7F22E43C085518230B0F730
:104D000010913F05612F70E0762F662766277F7729
:104D100080914005682B90E080E00E94172D2DECDB
:104D20003CEC4CEC5DE30E94782D5CC060913F054B
:104D300070E090E080E00E94172D6B017C011091E3
:104D4000400517FF0AC0AC019B0160E070E080E8FD
:104D50009FEB0E94A92E6B017C011F70612F70E0F8
:104D600090E080E00E94192D2DEC3CEC4CEC5DE3D2
:104D70000E94782DA70196010E94AA2E6B017C014A
:104D80000E943503882309F464C0809143058B3069
:104D900030F08D3080F18551823008F46DC0412CA7
:104DA000512C90EC692E9FE7792E43C010913F055E
:104DB000612F70E090E080E00E94172D6B017C0174
:104DC000609140056F7070E090E080E00E94192DC6
:104DD0002DEC3CEC4CEC5DE30E94782DA701960194
:104DE0000E94AA2E6B017C0117FFCACFF7FAF0943C
:104DF000F7F8F094C5CF60913E0570E090E080E058
:104E00000E94192D2DEC3CEC4CEC5DE30E94782DBA
:104E10002B013C0160913D0570E090E080E00E9434
:104E2000192D9B01AC01C301B2010E94AA2E2B01D6
:104E30003C01A7019601C701B6010E94BC2F811158
:104E400008C0A3019201C301B2010E94BC2F8823B4
:104E500029F16CE672E084EE93E00E946D0E80E032
:104E600090E0892B09F436CF0E949E05882309F42F
:104E70002DCF0E9400002ACF60913D0570913E0524
:104E800076276727762790E080E00E94172D2DEC8B
:104E90003CEC4CEC5DE30E94782DC9CFEAE6F1E0F2
:104EA0008491E0EBF1E00491ECE9F1E0149111233D
:104EB00009F47DC081110E944A02E12FF0E0EE0F5B
:104EC000FF1FEA58FE4FA591B4918C91082391E001
:104ED00080E009F490E0092F182F67E872E084EE73
:104EE00093E00E94CF0C42E0C701B6010E948B0DF7
:104EF00065E972E084EE93E00E946D0E6AE972E06B
:104F000084EE93E00E94CF0C42E0C301B2010E9404
:104F10008B0D65EA72E084EE93E00E946D0E68EA04
:104F200072E084EE93E00E94CF0C6EE072E0011517
:104F3000110511F062E172E084EE93E00E946D0EC3
:104F400020E030E040EF51E4C701B6010E94B72FE6
:104F5000181684F561E08AE00E94730260E089E03F
:104F60000E94730261E086E00E9473020115110540
:104F700009F05CC161E083E00E94730260E084E0BC
:104F80000E94730261E085E00E94A102E7E6F1E081
:104F9000E491E33009F42CC1B8F4E13049F1E23096
:104FA00009F420C161E085E00E94730226C010E090
:104FB00000E093CF60E08AE00E94730261E089E044
:104FC0000E94730260E0CFCFE73009F41DC1E830E2
:104FD00009F423C1E43031F780918000806280932E
:104FE000800080E890E090938B0080938A0005C059
:104FF00084B5806884BD80E887BD0E9429038090C5
:10500000B4039090B503A090B603B090B7039B0192
:10501000AC01281939094A095B0920383E4341058A
:10502000510508F41CC16093B4037093B5038093D9
:10503000B6039093B70340E550E06DE173E08EE274
:1050400095E00E945E216AEB72E0892B09F403C1AE
:1050500065E173E0012B11F065E172E0CE0143964A
:105060000E94DE13B301A201CE010D960E94A0138F
:10507000B701A601CE0107960E94A0136DED72E064
:10508000CE0101960E94DE13BE01695F7F4FCE0103
:1050900001960E946C1365EE72E00E945613BE01E9
:1050A000635F7F4F0E946C136EEE72E00E94561396
:1050B000BE016D5E7F4F0E946C1367EF72E00E942D
:1050C00056136DEB74E00E946C131A8E198E1C8EB1
:1050D0001B8E1E8E1D8E8BA09CA08815990571F0CD
:1050E000DC016D917C9111976115710539F0149671
:1050F0004D915C91CE0149960E947F13CE0101969D
:105100000E94A50ECE0107960E94A50ECE010D9617
:105110000E94A50ECE0143960E94A50E61E073E0A9
:105120008EE295E00E946D0E67E173E08EE295E0FD
:105130000E946D0E60E373E08EE295E00E946D0EBA
:1051400062E473E08EE295E00E946D0E62E773E028
:105150008EE295E00E94CF0C4D8D5E8D70E060E098
:105160002AE08EE295E00E94F50C6CE871E08EE298
:1051700095E00E94CF0C6CE871E08EE295E00E9411
:10518000CF0C4D8D5E8D698D7A8D8EE295E00E94FB
:10519000491C64EF71E080E090E00E94F7028EE22B
:1051A00095E00E940B1D892B09F44BC06EE871E05D
:1051B000CE0101960E94DE138EE295E00E940B1D47
:1051C000892BB9F18EE295E00E94E9218F83188640
:1051D00041E050E0BE01695F7F4FCE0101960E9421
:1051E0002A13EACF84B5806284BD80E888BD05CFEC
:1051F0008091800080688093800080E890E09093A8
:10520000890080938800F9CE8091B00080688093F7
:10521000B00080E88093B300F0CE8091B00080624F
:105220008093B00080E88093B400E7CE0E94BF0C6A
:10523000E4CECE0101960E94DE0CCE0101960E94C2
:10524000A50E8EE295E00E94FE15CE0149960E94C1
:10525000A50E63E873E084EE93E00E946D0E0E9459
:10526000F901882309F492C08091D3049091D40469
:10527000DC01ED91FC910084F185E02D09958C0114
:10528000181619060CF54091CE045091CF04609188
:10529000D0047091D104E0911A05F0911B05809122
:1052A00018059091190509951A82198250E040E07D
:1052B000B801CE0101960E941208009709F019C1A9
:1052C00010922705109226054091CE045091CF04EC
:1052D0006091D0047091D104E0911A05F0911B0502
:1052E000809118059091190509958091FF0490917E
:1052F0000005A0910105B0910205892B8A2B8B2B0B
:1053000009F440C0E0911C05F0911D05809116053F
:10531000909117050995161617061806190694F1A7
:10532000809103058111C6C0609104057091050547
:1053300000910805109109051A830983600F711FF8
:105340006017710709F4D3C080ECF801808389816C
:105350009A8101969A83898320E030E0A901CE01E9
:1053600001960E944106009709F0C3C089819A8185
:10537000801B910B0E946201009709F0BAC081E086
:105380008093030510922705109226050E94290399
:105390000091B0031091B1032091B2033091B30397
:1053A000601B710B820B930B693E73408105910565
:1053B00008F496C00E9429036093B0037093B10370
:1053C0008093B2039093B3030E94F901882309F4F8
:1053D00087C08091220590912305892B21F010929E
:1053E000230510922205C090CE04D090CF04E09007
:1053F000D004F090D10487EE91E00E94810E2B0141
:105400003C01E0911A05F0911B05B701A6018091BE
:10541000180590911905099500910405109105054D
:10542000809008059090090598868F82080D191DB7
:10543000620122E0C20ED11CF12CE12C35E0C30E3A
:10544000D11CE11CF11CAE014F5F5F4FC701B601DB
:105450000E94EB060296A9F1EF81F885E017F107AB
:1054600009F44CC080E380838F81988501969887EA
:105470008F83A7019601B801CE0107960E944106CD
:10548000009789F4A3019201B801CE0107960E940A
:10549000AF0E009741F48F819885881999090E9471
:1054A0006201009789F090932705809326050E945A
:1054B000EC0116C030922705209226050E94EC01CF
:1054C00065CF89EF9FEFEFCF65E070E089EA93E069
:1054D0000E940D01009739F71092270510922605BA
:1054E0000E94F9018111BBCC0E94EB0EB8CC8FEF6A
:1054F0009FEF9093270580932605E0CF8FEF9FEFD6
:10550000D2CF8DEB94E00E94A50EE091DF04F091E4
:10551000E0043097F1F087819085892B21F0818517
:1055200092850E946330E091DF04F091E004808175
:105530009181892B21F0828193810E946330809137
:10554000DF049091E0040E9463301092E004109216
:10555000DF048091D5049091D604009711F00E9449
:1055600063308091C7049091C8040E946330809199
:10557000C9049091CA040C946330EF920F931F9367
:10558000CF93DF93E80134E047FD34E1042E000CB3
:10559000550B57FF03C0519541955109E32E022F3A
:1055A000242FAE010E94DB2ACE01DF91CF911F9103
:1055B0000F91EF900895A9E0B0E0E1EEFAE20C94CB
:1055C000472E6A01F22EB02E102FFBE3AF2EA0164D
:1055D00008F41BE31F5F012F27E0AE014F5F5F4F11
:1055E0000E943A2CBC018981982F9970913009F45E
:1055F0003FC09BE2E1FC04C09E2D9170E0FC3AC0EC
:105600005E2D5071E82FE87083FF46C084E0911151
:1056100001C083E0EF2DE81B8F1508F0E0E0D60114
:105620008E2F20E2552351F1992329F0D6019C9326
:10563000C60101966C0196012D5F3F4FE2FE24C02A
:105640008EE4D6018C9391E411969C931197129657
:105650008C93D9018E2F90E281111BC0E20FF32FA2
:10566000F11D10828EEF9FEF2996ECE00C94632ED3
:105670009DE2C6CF90E2C4CF2D9381508111FCCF23
:10568000CE0ED11CE0E0D0CF8EE6D6018C9391E611
:10569000DBCF9D938150E0CF482F447082FF3DC007
:1056A00084E0911101C083E08F1510F4EF2DE81B09
:1056B000D6018E2F20E2552309F1992329F0D60136
:1056C0009C93C60101966C0196012D5F3F4FE2FE4F
:1056D0001BC089E4D6018C938EE411968C931197AC
:1056E00086E412968C93D9018E2F90E2882309F4D8
:1056F000B5CF9D938150FACF2D9381508111FCCF6E
:10570000CE0ED11CE0E0D9CF89E6D6018C938EE68F
:1057100011968C93119786E6E4CF9B0177FF02C028
:1057200030E020E0A1E0B0E0911102C0B0E0A0E0E4
:10573000F9013196AE0FBF1F8B2C912CBB2009F4C1
:1057400061C05401EFEFAE1ABE0AAA0DBB1DFA16D6
:105750001B0619F014F04F2D4A1B511188C0E3FCB1
:1057600059C07601A42FB0E2A1114FC0C40ED11CC4
:10577000992309F45BC040E0D6011196F6019083AD
:105780006D01552309F448C0012F060F9A81582F47
:10579000507184FF03C0913309F4015010160CF0CE
:1057A00047C0093008F008E0EEE2FE2E5B01A01AC7
:1057B000B10885019194819491082F3F320729F413
:1057C000D601FC92F60131966F016217730794F1CE
:1057D000021713077CF5DB01A21BB30BAA24A394C9
:1057E000B12CAC0EBD1EAA0DBB1D11968C91215083
:1057F0003109D601119628153905F4F0F601808398
:105800006D01DBCFB12CA12CA0CFF701B1937F01AB
:10581000A150AACF9111B0CFD601942F50E302C06E
:105820005D9391509111FCCFC40ED11C40E0ACCFE0
:1058300001E0BACF80E3DBCF6217730731F4963310
:1058400088F4953311F4552369F0F6018083FD0146
:10585000842F90E2811108C0A40FB11D1C9290E02A
:1058600080E002CF81E3F1CF91938150F3CF91118A
:1058700083CF8ACF283008F027E03327DA01990F49
:10588000311D87FD916000966105710539F4326024
:105890002E5F3D9330E32A95E1F708959F3F30F066
:1058A00080387105610509F03C5F3C5F3D939130A4
:1058B00008F08068911DDF93CF931F930F93FF92A1
:1058C000EF92192F987F9695E92F96959695E90F67
:1058D000FF27EE53FF4F99273327EE24FF24A7011C
:1058E000E70105900894079428F4360FE71EF81E88
:1058F000491F511D660F771F881F991F0694A1F736
:105900000590079428F4E70EF81E491F561FC11D85
:10591000770F881F991F661F0694A1F705900794BB
:1059200028F4F80E491F561FC71FD11D880F991F55
:10593000661F771F0694A1F70590079420F4490F7E
:10594000561FC71FD81F990F661F771F881F069401
:10595000A9F784911095177041F0D695C795579582
:105960004795F794E7941A95C1F7E8E6F0E0689454
:105970001590159135916591959105907FE27395FC
:10598000E118F10A430B560BC90BD009C0F7E10C23
:10599000F11E431F561FC91FD01D7EF4703311F432
:1059A0008A95E6CFE894015030F0080F0AF40027FA
:1059B000021708F4202F2395022F7A3328F079E379
:1059C0007D932A95E9F710C07D932A9589F6069470
:1059D00097956795379517951794E118F10A430B3A
:1059E000560BC90BD00998F023957E9173957A33A5
:1059F00008F070E37C932013B8F77E9170617D937B
:105A000030F0839571E37D9370E32A95E1F71124DB
:105A1000EF90FF900F911F91CF91DF91992787FD14
:105A2000909508950E94542D08F481E00895E8941B
:105A300009C097FB3EF490958095709561957F4FD6
:105A40008F4F9F4F9923A9F0F92F96E9BB27939584
:105A5000F695879577956795B795F111F8CFFAF494
:105A6000BB0F11F460FF1BC06F5F7F4F8F4F9F4FC5
:105A700016C0882311F096E911C0772321F09EE823
:105A8000872F762F05C0662371F096E8862F70E089
:105A900060E02AF09A95660F771F881FDAF7880F63
:105AA0009695879597F90895990F0008550FAA0BB9
:105AB000E0E8FEEF16161706E807F907C0F0121621
:105AC0001306E407F50798F0621B730B840B950B24
:105AD00039F40A2661F0232B242B252B21F4089579
